[
  {
    "to": "0x8ad1fff6c622b403f917ff8a004cf87ff59a9c16",
    "amount": "0.236575154305162304",
    "txHash": "0x8f843d1ca294c412fb22f687f89a7b8045e74f57e8d149bc53f7baa164a6ece1",
    "timestamp": "2025-07-09T18:51:13.110Z"
  },
  {
    "to": "0x0c1c67c66fce45169072352d6364d0b60d5de933",
    "amount": "0.18926338318824536",
    "txHash": "0x633099d36808e06efa5f4ed556e7fba0612400c7e5f960a63404c83c205e2769",
    "timestamp": "2025-07-09T18:52:09.224Z"
  },
  {
    "to": "0x72b3921b6f2ee80f8fa80c67bed74ff5b5f3ea41",
    "amount": "0.10436723475777996",
    "txHash": "0x3a65d9728bc17811d3c7ca51e08fd5dd438e8dc9100676e95d67a17b9c3a535c",
    "timestamp": "2025-07-09T18:52:12.183Z"
  },
  {
    "to": "0x75a21622eb5acd9f62046113ba5e58dbd00ca3c2",
    "amount": "0.210390484603619904",
    "txHash": "0xd231b64334c01be8683f445349e1bbe2b8b2500e0de57576c3d261a5f994e780",
    "timestamp": "2025-07-09T18:52:21.108Z"
  },
  {
    "to": "0xe5b99271df784e5347d06e9afe0b63ab21ee1757",
    "amount": "0.163289104640386016",
    "txHash": "0x4afb196e6ffb42035b834057b8a6feef5b8244f1e26b91d1f70905aa0745c695",
    "timestamp": "2025-07-09T18:52:54.620Z"
  },
  {
    "to": "0xa353a4abdd75d43fd066f81cabc1b8fb6e603b11",
    "amount": "0.210607986743484368",
    "txHash": "0x9c8191ccf2c2d54e2c8c8503ac1ae140475e8f6d3e547d6750ebbda8d436dd96",
    "timestamp": "2025-07-09T18:54:34.065Z"
  },
  {
    "to": "0x2cbfb3088eba21d99dd56fd9b7430bb0e7edf7c5",
    "amount": "0.196106521427972528",
    "txHash": "0x84d078eab416fa060417253705f8cae426f80bee0b769eb97cded939073daf3b",
    "timestamp": "2025-07-09T18:58:02.171Z"
  },
  {
    "to": "0x6a0146d012ea3f82470b5e2f4d92fc99e04a1d9c",
    "amount": "0.210382034445019184",
    "txHash": "0x7df07966881c711a2aeb25ea583c5bf120378d427fe82e2662fee213dd5d601b",
    "timestamp": "2025-07-09T18:58:24.050Z"
  },
  {
    "to": "0x3232744295d38a5e1545bfee7e078e5352c6e013",
    "amount": "0.203514291500353648",
    "txHash": "0x1d1eef260004f413e7ab7304b0cab7a18b62eb4b46dd97d147212cf0c7f2248b",
    "timestamp": "2025-07-09T19:00:06.834Z"
  },
  {
    "to": "0x2a758ed137f2c07801a8e43cd7a5dd6a90afef6f",
    "amount": "0.129533793157060152",
    "error": "nonce has already been used (transaction=\"0x02f87782279f8202a384773594008517bfac7c00825208942a758ed137f2c07801a8e43cd7a5dd6a90afef6f8801cc324c6f89163880c080a008d47108b92e734fd14398ea9161e7867c4372620730749e4f426f9489763ce9a005b463b617b16a7286521f624e068d9d3f26f178f586ba08100756b3b61d6fcd\", info={ \"error\": { \"code\": -32603, \"message\": \"Transaction nonce too low\" } }, code=NONCE_EXPIRED, version=6.15.0)",
    "timestamp": "2025-07-09T19:00:08.588Z"
  },
  {
    "to": "0xa003c35baf3addcd8caa8577b7bec8a3fe32e0e2",
    "amount": "0.122875637127525288",
    "txHash": "0x33fa03b8ce67d7c38c1ad966829157d1b65b447d24dcb0d3ac357fe01f315c5d",
    "timestamp": "2025-07-09T19:00:19.428Z"
  },
  {
    "to": "0xe5b99271df784e5347d06e9afe0b63ab21ee1757",
    "amount": "0.11427055152331664",
    "txHash": "0xda78777b5d728166515d0fb0b7979bb3a5c52f9ca7924c893fabbf728d9e20d6",
    "timestamp": "2025-07-09T19:02:08.479Z"
  },
  {
    "to": "0x239b445eac142410f3511ca239452b2fb275ee04",
    "amount": "0.151595534782410416",
    "txHash": "0xd90f8baa572fca0e12dd9db718475e633162efc6d8417e3a68749f0cb902d43b",
    "timestamp": "2025-07-09T19:04:56.868Z"
  },
  {
    "to": "0x672da68a15ef7fcdbe20f231dbddbaa0f1f28b1c",
    "amount": "0.186512608342537728",
    "txHash": "0x1fba7ef7194ff43b4463049ab381eab6103c453b2041709c224a7d652aabb296",
    "timestamp": "2025-07-09T19:05:25.374Z"
  },
  {
    "to": "0xd422fc040ad9294d553150cf5646ab0b1729e443",
    "amount": "0.124112111075464464",
    "txHash": "0x893dc64074f0c0f3a07b482acf307d294f28e6c1763202f2b8128ab832d45d4c",
    "timestamp": "2025-07-09T19:06:04.580Z"
  },
  {
    "to": "0xf435e0eeb78c277a18195d5b5de58815d2135611",
    "amount": "0.211910214871676064",
    "txHash": "0x8b36f199659b9efa95ceaf7578bf487532a7e4465b48659ba6ea265f21337308",
    "timestamp": "2025-07-09T19:06:22.209Z"
  },
  {
    "to": "0xe03c00bf3ed68b2bf602439062b68eed862d126b",
    "amount": "0.1622336059755716",
    "error": "nonce has already been used (transaction=\"0x02f87782279f8202a984773594008517bfac7c0082520894e03c00bf3ed68b2bf602439062b68eed862d126b8802405e9ae6cdfc9080c080a0bb4884e2c94c8a1100bc0560994e59c3cbcd92dc4a85d2f0de7049f82be9ef23a003f023f14fdfe82d9118933d4aba94b73818a843574b0367da59ad93b22f7d06\", info={ \"error\": { \"code\": -32603, \"message\": \"Transaction nonce too low\" } }, code=NONCE_EXPIRED, version=6.15.0)",
    "timestamp": "2025-07-09T19:06:23.570Z"
  },
  {
    "to": "0x359ab5565b73d20dbec544722586ff7da01b4b5f",
    "amount": "0.130554411554030064",
    "txHash": "0xc6e16a7477c902092f181743531e4a22788a56e122ab71255664730f6e97d078",
    "timestamp": "2025-07-10T20:01:28.560Z"
  },
  {
    "to": "0x5abc939ce73b74a5d141a0ef0fa98a3a4fd434c5",
    "amount": "0.037667083464013888",
    "error": "nonce has already been used (transaction=\"0x02f87682279f8202c284773594008517bfac7c00825208945abc939ce73b74a5d141a0ef0fa98a3a4fd434c58785d2034998f84080c080a06f394f80edd0c9766d8a519be7808845f578ab6fa2ed5f8d9bd21d8606ee8b57a015e32f305750384c0e19273f5ff2af9a87b8b9a07639c2c087a52b3887440886\", info={ \"error\": { \"code\": -32603, \"message\": \"Transaction nonce too low\" } }, code=NONCE_EXPIRED, version=6.15.0)",
    "timestamp": "2025-07-10T20:01:30.232Z"
  },
  {
    "to": "0xcc5e975fa94d50b4213d2338a12435dd7e09a452",
    "amount": "0.1457224580759708",
    "txHash": "0x991907d3a9d255a54eb00969e0197896a1c62422c6bde5e2a8899c73c9a56f05",
    "timestamp": "2025-07-10T20:01:32.113Z"
  },
  {
    "to": "0xf6840795c32a6e4e7eed0344802352263362de04",
    "amount": "0.17676955159621248",
    "txHash": "0xf8f4ad03c9ac0af4fea6a9559b6de3c86682e05fbfe88d78c9d15e3397ab9c7f",
    "timestamp": "2025-07-10T20:01:49.939Z"
  },
  {
    "to": "0x0c1c67c66fce45169072352d6364d0b60d5de933",
    "amount": "0.140355996667632",
    "txHash": "0x6f9d459660f2351f92d5de65a5d7e0ced055096a7ce12571e620baefe7eb16cb",
    "timestamp": "2025-07-10T20:02:06.190Z"
  },
  {
    "to": "0xb6d77a25d47389dbfb69efeb02230483b301be04",
    "amount": "0.03511965483535038",
    "txHash": "0x93fd4a92e9988e3656eae5118a3c1e34d0af0b87014d542bac5f23639a648682",
    "timestamp": "2025-07-10T20:06:55.543Z"
  },
  {
    "to": "0x239b445eac142410f3511ca239452b2fb275ee04",
    "amount": "0.070000197665977664",
    "txHash": "0xd896307d1af753b86b1a1ba4164eebf0193c40fa978ac4b4cf25cc90b8c5a87f",
    "timestamp": "2025-07-10T20:07:01.495Z"
  },
  {
    "to": "0x34dba53c145b966341ba18e3346cb3cb24185279",
    "amount": "0.069268896365936776",
    "txHash": "0x758303a74cfde0b19a88aece4c022b6df9f1bf7ea755a4ec46dd6dc46c0957bf",
    "timestamp": "2025-07-10T20:08:03.021Z"
  },
  {
    "to": "0x0c1c67c66fce45169072352d6364d0b60d5de933",
    "amount": "0.048057454378338952",
    "txHash": "0xae19cbad18b03463ec81210ea43c2838b3cf4ce0cc13c9dceec322e0b23d1c4a",
    "timestamp": "2025-07-10T20:09:15.262Z"
  },
  {
    "to": "0x28135235541742bc1424d10b5de1963292f0c1e4",
    "amount": "0.049422385624086136",
    "txHash": "0xdc9487dc5d78af976992295d7ae3a50137f872255abe0e30bfe6aa46685e0e4c",
    "timestamp": "2025-07-10T20:10:42.942Z"
  },
  {
    "to": "0xe5313c05ebee79ddc3b1ccf0c861a1eb21da762d",
    "amount": "0.071364255350951992",
    "txHash": "0xb60f34ce798797ec5619e87183ab4e4314c238a2306993850872cf06c75586d0",
    "timestamp": "2025-07-10T20:11:16.385Z"
  },
  {
    "to": "0x384e343ffff257835b891bdb821a5e9ca24fcbac",
    "amount": "0.042523151664480328",
    "txHash": "0x019e206438514a3e9dd091bae708add6fa7c84c966741c33fb0ecb658083847d",
    "timestamp": "2025-07-10T20:12:36.744Z"
  },
  {
    "to": "0x2cbfb3088eba21d99dd56fd9b7430bb0e7edf7c5",
    "amount": "0.067681492089770728",
    "txHash": "0x95ef5d90ca4c26e38d02765abd0e4fda7a58508eb11caa30c793338c33ac2c1b",
    "timestamp": "2025-07-12T01:26:32.197Z",
    "gasUsed": "21000",
    "gasPrice": "52000000000",
    "gasCost": "1092000000000000"
  },
  {
    "to": "0x3d0de3a76cd9f856664dc5a3adfd4056e45da9ed",
    "amount": "0.093534306646673232",
    "txHash": "0x74a1c0437cee3ef6ed1524c3cd33df2ad50fdd899ab74513a9f0d37046d8c4f6",
    "timestamp": "2025-07-12T01:26:35.247Z",
    "gasUsed": "21000",
    "gasPrice": "52000000000",
    "gasCost": "1092000000000000"
  },
  {
    "to": "0x5bf7069bc5b05634dfbaddc64cd4872f04aed47f",
    "amount": "0.112302639202713936",
    "txHash": "0x8c8241ca62cea8c8d29e9d5841bb8ce1670d2e7364106c2d4f83fd6b13c54d43",
    "timestamp": "2025-07-12T01:26:38.146Z",
    "gasUsed": "21000",
    "gasPrice": "52000000000",
    "gasCost": "1092000000000000"
  },
  {
    "to": "0x00e066fd1eaa78f41576a23a8c34e747cc88320b",
    "amount": "0.151624400321587952",
    "txHash": "0xf23f326f62872f6b26034628856ca84e54a2cbe84a13b24112fdf31afc02682f",
    "timestamp": "2025-07-12T01:26:40.225Z",
    "gasUsed": "21000",
    "gasPrice": "52000000000",
    "gasCost": "1092000000000000"
  },
  {
    "to": "0xd5942f353eede5f21fbfc57959226d0814220528",
    "amount": "0.070221511877112784",
    "txHash": "0x488cc364f6c26eb40e937dc0210839e9daec279d0b499a9e0092d5bc685fe04d",
    "timestamp": "2025-07-12T01:26:43.165Z",
    "gasUsed": "21000",
    "gasPrice": "52000000000",
    "gasCost": "1092000000000000"
  },
  {
    "to": "0xe03c00bf3ed68b2bf602439062b68eed862d126b",
    "amount": "0.161175242510935968",
    "txHash": "0x435d034fe71746a73fcac8c898ab08b1555c352313a365c49fb003368cf75b62",
    "timestamp": "2025-07-12T01:26:45.196Z",
    "gasUsed": "21000",
    "gasPrice": "52000000000",
    "gasCost": "1092000000000000"
  },
  {
    "to": "0x239b445eac142410f3511ca239452b2fb275ee04",
    "amount": "0.060553005637396608",
    "txHash": "0x07809698ff1ebabd13cba62747ec313e926448a041d856ed834aecdb122deaed",
    "timestamp": "2025-07-12T01:26:47.233Z",
    "gasUsed": "21000",
    "gasPrice": "52000000000",
    "gasCost": "1092000000000000"
  },
  {
    "to": "0xd5890c71f1b20428614b5d08d45905d31c0101b8",
    "amount": "0.106588121563865744",
    "txHash": "0x4fc2ef6c2d7f3504ad0a985c538be8f5087b2f1e8a5df6b5aa4820b73a9e3469",
    "timestamp": "2025-07-12T01:26:50.067Z",
    "gasUsed": "21000",
    "gasPrice": "52000000000",
    "gasCost": "1092000000000000"
  },
  {
    "to": "0x14a4e6848a2e758558dac44d3306b5a636c18b58",
    "amount": "0.18131510142681344",
    "txHash": "0xe113889e1c88ec1ca1c81cf15f7294d6ffcc5411e1feada3951e4602bf7da3d5",
    "timestamp": "2025-07-12T01:26:52.765Z",
    "gasUsed": "21000",
    "gasPrice": "52000000000",
    "gasCost": "1092000000000000"
  },
  {
    "to": "0xe5313c05ebee79ddc3b1ccf0c861a1eb21da762d",
    "amount": "0.103096762278171968",
    "txHash": "0x78865333a5eeb4f30f7166d238e1da4ed4a47bb3659f82106b77202500ee5a21",
    "timestamp": "2025-07-12T01:26:55.600Z",
    "gasUsed": "21000",
    "gasPrice": "52000000000",
    "gasCost": "1092000000000000"
  },
  {
    "to": "0x75a21622eb5acd9f62046113ba5e58dbd00ca3c2",
    "amount": "0.028368877338215326",
    "txHash": "0xcd78d7b8eed9b6dd19899dea698f797086322d0bf84df3c7a80fcd3d5ae39658",
    "timestamp": "2025-07-12T01:26:58.805Z",
    "gasUsed": "21000",
    "gasPrice": "52000000000",
    "gasCost": "1092000000000000"
  },
  {
    "to": "0xa8ab8a08a25022965160403e02f03c89e2acb688",
    "amount": "0.168216875256327296",
    "txHash": "0xd1263079b196fdd066b64598a7d7f3ecc5c807b49cdc991a744d7630aa1311c0",
    "timestamp": "2025-07-12T01:27:11.232Z",
    "gasUsed": "21000",
    "gasPrice": "52000000000",
    "gasCost": "1092000000000000"
  },
  {
    "to": "0x384e343ffff257835b891bdb821a5e9ca24fcbac",
    "amount": "0.093154096591481328",
    "txHash": "0xc453567b4e7c58bb5bacf1577e64f83a9db2ed53067cdd8b7351371b8845147e",
    "timestamp": "2025-07-12T01:27:14.202Z",
    "gasUsed": "21000",
    "gasPrice": "52000000000",
    "gasCost": "1092000000000000"
  },
  {
    "to": "0x5b509940cefe446f450f9fa6ba4c073b919afd87",
    "amount": "0.048133590506768944",
    "txHash": "0x97b51afc0746dc06f2ab0820ed35a5ee29b1a709fc4a798022def2395804b37d",
    "timestamp": "2025-07-12T01:27:18.485Z",
    "gasUsed": "21000",
    "gasPrice": "52000000000",
    "gasCost": "1092000000000000"
  },
  {
    "to": "0xd57533ef8cb0b9cb8605970ee4f02b7ac019d5f4",
    "amount": "0.0330820095641107",
    "txHash": "0xf9be0b7a52a118576b2d8dc10eaaaa9db4af195edd8ef6b03b4c0b894488d6a0",
    "timestamp": "2025-07-12T01:27:25.656Z",
    "gasUsed": "21000",
    "gasPrice": "52000000000",
    "gasCost": "1092000000000000"
  }
]